{
  "fileName": "ERC20.sol",
  "contractName": "ERC20",
  "source": "pragma solidity ^0.6.0;\n\nimport \"./IERC20.sol\";\nimport \"./Initializable.sol\";\n\n\ncontract ERC20 is IERC20,Initializable{\n    uint256 total_supply;\n\n    mapping(address => uint256) private _balance;\n\n    mapping(address => uint256) approved_amount;\n\n    mapping(address => mapping(address => uint256)) private _allowances;\n\n    \n    string private name;\n    address contract_owner;\n\nfunction initialize() public initializer {\n        name = \"Dan_Token\";\n        total_supply = 10000 * (10**18);\n        _balance[msg.sender] = total_supply;\n        contract_owner=msg.sender;\n        \n    }\n\n\n\n\n\n\n    function totalSupply() external view override returns (uint256) {\n        return total_supply;\n    }\n\n    function mint(uint256 amount) public  {\n        require(msg.sender == contract_owner, \"Only Owner can mint tokens\");\n        total_supply += amount;\n    }\n\n    function balanceOf(address account) external override view  returns (uint256) {\n        return _balance[account];\n    }\n\n    function transfer(address recipient, uint256 amount)\n        external override \n        returns (bool)\n    {\n\n        require(\n            amount <= _balance[msg.sender],\n            \"Amount inputted is greater than amount sender has\"\n        );\n        _balance[recipient] += amount;\n        _balance[msg.sender] -= amount;\n\n        emit Transfer(msg.sender, recipient, amount);\n    }\n\n    function transferFrom(\n        address sender,\n        address recipient,\n        uint256 amount\n    ) external override  returns (bool) {\n        require(\n            amount <= _allowances[sender][msg.sender],\n            \"Amount inputted is greater than approved amount\"\n        );\n\n        \n        _balance[recipient] += amount;\n        _balance[sender] -= amount;\n        _allowances[sender][msg.sender] -=amount;\n\n        return true;\n    }\n\n    function allowance(address _owner, address spender)\n        external\n        view override \n        returns (uint256)\n    {\n        return _allowances[_owner][spender];\n    }\n\n    function approve(address spender, uint256 amount) external override returns (bool) {\n        _allowances[msg.sender][spender] = amount;\n        emit Approval(msg.sender, spender, amount);\n    }\n\n    event Transfer(address indexed from, address indexed to, uint256 value);\n\n    event Approval(\n        address indexed owner,\n        address indexed spender,\n        uint256 value\n    );\n}\n",
  "sourcePath": "contracts/ERC20.sol",
  "abi": [
    {
      "anonymous": false,
      "inputs": [
        {
          "indexed": true,
          "internalType": "address",
          "name": "owner",
          "type": "address"
        },
        {
          "indexed": true,
          "internalType": "address",
          "name": "spender",
          "type": "address"
        },
        {
          "indexed": false,
          "internalType": "uint256",
          "name": "value",
          "type": "uint256"
        }
      ],
      "name": "Approval",
      "type": "event"
    },
    {
      "anonymous": false,
      "inputs": [
        {
          "indexed": true,
          "internalType": "address",
          "name": "from",
          "type": "address"
        },
        {
          "indexed": true,
          "internalType": "address",
          "name": "to",
          "type": "address"
        },
        {
          "indexed": false,
          "internalType": "uint256",
          "name": "value",
          "type": "uint256"
        }
      ],
      "name": "Transfer",
      "type": "event"
    },
    {
      "inputs": [
        {
          "internalType": "address",
          "name": "_owner",
          "type": "address"
        },
        {
          "internalType": "address",
          "name": "spender",
          "type": "address"
        }
      ],
      "name": "allowance",
      "outputs": [
        {
          "internalType": "uint256",
          "name": "",
          "type": "uint256"
        }
      ],
      "stateMutability": "view",
      "type": "function"
    },
    {
      "inputs": [
        {
          "internalType": "address",
          "name": "spender",
          "type": "address"
        },
        {
          "internalType": "uint256",
          "name": "amount",
          "type": "uint256"
        }
      ],
      "name": "approve",
      "outputs": [
        {
          "internalType": "bool",
          "name": "",
          "type": "bool"
        }
      ],
      "stateMutability": "nonpayable",
      "type": "function"
    },
    {
      "inputs": [
        {
          "internalType": "address",
          "name": "account",
          "type": "address"
        }
      ],
      "name": "balanceOf",
      "outputs": [
        {
          "internalType": "uint256",
          "name": "",
          "type": "uint256"
        }
      ],
      "stateMutability": "view",
      "type": "function"
    },
    {
      "inputs": [],
      "name": "initialize",
      "outputs": [],
      "stateMutability": "nonpayable",
      "type": "function"
    },
    {
      "inputs": [
        {
          "internalType": "uint256",
          "name": "amount",
          "type": "uint256"
        }
      ],
      "name": "mint",
      "outputs": [],
      "stateMutability": "nonpayable",
      "type": "function"
    },
    {
      "inputs": [],
      "name": "totalSupply",
      "outputs": [
        {
          "internalType": "uint256",
          "name": "",
          "type": "uint256"
        }
      ],
      "stateMutability": "view",
      "type": "function"
    },
    {
      "inputs": [
        {
          "internalType": "address",
          "name": "recipient",
          "type": "address"
        },
        {
          "internalType": "uint256",
          "name": "amount",
          "type": "uint256"
        }
      ],
      "name": "transfer",
      "outputs": [
        {
          "internalType": "bool",
          "name": "",
          "type": "bool"
        }
      ],
      "stateMutability": "nonpayable",
      "type": "function"
    },
    {
      "inputs": [
        {
          "internalType": "address",
          "name": "sender",
          "type": "address"
        },
        {
          "internalType": "address",
          "name": "recipient",
          "type": "address"
        },
        {
          "internalType": "uint256",
          "name": "amount",
          "type": "uint256"
        }
      ],
      "name": "transferFrom",
      "outputs": [
        {
          "internalType": "bool",
          "name": "",
          "type": "bool"
        }
      ],
      "stateMutability": "nonpayable",
      "type": "function"
    }
  ],
  "bytecode": "0x608060405234801561001057600080fd5b50610cab806100206000396000f3fe608060405234801561001057600080fd5b50600436106100885760003560e01c80638129fc1c1161005b5780638129fc1c146101ef578063a0712d68146101f9578063a9059cbb14610227578063dd62ed3e1461028d57610088565b8063095ea7b31461008d57806318160ddd146100f357806323b872dd1461011157806370a0823114610197575b600080fd5b6100d9600480360360408110156100a357600080fd5b81019080803573ffffffffffffffffffffffffffffffffffffffff16906020019092919080359060200190929190505050610305565b604051808215151515815260200191505060405180910390f35b6100fb6103f3565b6040518082815260200191505060405180910390f35b61017d6004803603606081101561012757600080fd5b81019080803573ffffffffffffffffffffffffffffffffffffffff169060200190929190803573ffffffffffffffffffffffffffffffffffffffff169060200190929190803590602001909291905050506103fd565b604051808215151515815260200191505060405180910390f35b6101d9600480360360208110156101ad57600080fd5b81019080803573ffffffffffffffffffffffffffffffffffffffff169060200190929190505050610603565b6040518082815260200191505060405180910390f35b6101f761064c565b005b6102256004803603602081101561020f57600080fd5b810190808035906020019092919050505061082f565b005b6102736004803603604081101561023d57600080fd5b81019080803573ffffffffffffffffffffffffffffffffffffffff16906020019092919080359060200190929190505050610905565b604051808215151515815260200191505060405180910390f35b6102ef600480360360408110156102a357600080fd5b81019080803573ffffffffffffffffffffffffffffffffffffffff169060200190929190803573ffffffffffffffffffffffffffffffffffffffff169060200190929190505050610aa4565b6040518082815260200191505060405180910390f35b600081603660003373ffffffffffffffffffffffffffffffffffffffff1673ffffffffffffffffffffffffffffffffffffffff16815260200190815260200160002060008573ffffffffffffffffffffffffffffffffffffffff1673ffffffffffffffffffffffffffffffffffffffff168152602001908152602001600020819055508273ffffffffffffffffffffffffffffffffffffffff163373ffffffffffffffffffffffffffffffffffffffff167f8c5be1e5ebec7d5bd14f71427d1e84f3dd0314c0f7b2291e5b200ac8c7c3b925846040518082815260200191505060405180910390a392915050565b6000603354905090565b6000603660008573ffffffffffffffffffffffffffffffffffffffff1673ffffffffffffffffffffffffffffffffffffffff16815260200190815260200160002060003373ffffffffffffffffffffffffffffffffffffffff1673ffffffffffffffffffffffffffffffffffffffff168152602001908152602001600020548211156104d4576040517f08c379a000000000000000000000000000000000000000000000000000000000815260040180806020018281038252602f815260200180610be8602f913960400191505060405180910390fd5b81603460008573ffffffffffffffffffffffffffffffffffffffff1673ffffffffffffffffffffffffffffffffffffffff1681526020019081526020016000206000828254019250508190555081603460008673ffffffffffffffffffffffffffffffffffffffff1673ffffffffffffffffffffffffffffffffffffffff1681526020019081526020016000206000828254039250508190555081603660008673ffffffffffffffffffffffffffffffffffffffff1673ffffffffffffffffffffffffffffffffffffffff16815260200190815260200160002060003373ffffffffffffffffffffffffffffffffffffffff1673ffffffffffffffffffffffffffffffffffffffff16815260200190815260200160002060008282540392505081905550600190509392505050565b6000603460008373ffffffffffffffffffffffffffffffffffffffff1673ffffffffffffffffffffffffffffffffffffffff168152602001908152602001600020549050919050565b600060019054906101000a900460ff168061066b575061066a610b2b565b5b8061068257506000809054906101000a900460ff16155b6106d7576040517f08c379a000000000000000000000000000000000000000000000000000000000815260040180806020018281038252602e815260200180610c48602e913960400191505060405180910390fd5b60008060019054906101000a900460ff161590508015610727576001600060016101000a81548160ff02191690831515021790555060016000806101000a81548160ff0219169083151502179055505b6040518060400160405280600981526020017f44616e5f546f6b656e000000000000000000000000000000000000000000000081525060379080519060200190610772929190610b42565b5069021e19e0c9bab2400000603381905550603354603460003373ffffffffffffffffffffffffffffffffffffffff1673ffffffffffffffffffffffffffffffffffffffff1681526020019081526020016000208190555033603860006101000a81548173ffffffffffffffffffffffffffffffffffffffff021916908373ffffffffffffffffffffffffffffffffffffffff160217905550801561082c5760008060016101000a81548160ff0219169083151502179055505b50565b603860009054906101000a900473ffffffffffffffffffffffffffffffffffffffff1673ffffffffffffffffffffffffffffffffffffffff163373ffffffffffffffffffffffffffffffffffffffff16146108f2576040517f08c379a000000000000000000000000000000000000000000000000000000000815260040180806020018281038252601a8152602001807f4f6e6c79204f776e65722063616e206d696e7420746f6b656e7300000000000081525060200191505060405180910390fd5b8060336000828254019250508190555050565b6000603460003373ffffffffffffffffffffffffffffffffffffffff1673ffffffffffffffffffffffffffffffffffffffff1681526020019081526020016000205482111561099f576040517f08c379a0000000000000000000000000000000000000000000000000000000008152600401808060200182810382526031815260200180610c176031913960400191505060405180910390fd5b81603460008573ffffffffffffffffffffffffffffffffffffffff1673ffffffffffffffffffffffffffffffffffffffff1681526020019081526020016000206000828254019250508190555081603460003373ffffffffffffffffffffffffffffffffffffffff1673ffffffffffffffffffffffffffffffffffffffff168152602001908152602001600020600082825403925050819055508273ffffffffffffffffffffffffffffffffffffffff163373ffffffffffffffffffffffffffffffffffffffff167fddf252ad1be2c89b69c2b068fc378daa952ba7f163c4a11628f55a4df523b3ef846040518082815260200191505060405180910390a392915050565b6000603660008473ffffffffffffffffffffffffffffffffffffffff1673ffffffffffffffffffffffffffffffffffffffff16815260200190815260200160002060008373ffffffffffffffffffffffffffffffffffffffff1673ffffffffffffffffffffffffffffffffffffffff16815260200190815260200160002054905092915050565b6000803090506000813b9050600081149250505090565b828054600181600116156101000203166002900490600052602060002090601f016020900481019282601f10610b8357805160ff1916838001178555610bb1565b82800160010185558215610bb1579182015b82811115610bb0578251825591602001919060010190610b95565b5b509050610bbe9190610bc2565b5090565b610be491905b80821115610be0576000816000905550600101610bc8565b5090565b9056fe416d6f756e7420696e7075747465642069732067726561746572207468616e20617070726f76656420616d6f756e74416d6f756e7420696e7075747465642069732067726561746572207468616e20616d6f756e742073656e64657220686173436f6e747261637420696e7374616e63652068617320616c7265616479206265656e20696e697469616c697a6564a2646970667358221220f70832141179e3c717e722474979acc21f0c0c73b0e9e8e776dae3a430768ad764736f6c63430006000033",
  "compiler": {
    "name": "solc",
    "version": "0.6.0+commit.26b70077.Emscripten.clang",
    "optimizer": {
      "enabled": false,
      "runs": 200
    },
    "evmVersion": "petersburg"
  }
}