{
  "fileName": "ERC20.sol",
  "contractName": "ERC20",
  "source": "pragma solidity ^0.6.0;\n\nimport \"./IERC20.sol\";\nimport \"./Initializable.sol\";\n\n\ncontract ERC20 is IERC20,Initializable{\n    uint256 total_supply;\n\n    mapping(address => uint256) private _balance;\n\n    mapping(address => uint256) approved_amount;\n\n    mapping(address => mapping(address => uint256)) private _allowances;\n\n    \n    string private name;\n    address contract_owner;\n\nfunction initialize() public initializer {\n        name = \"Dan_Token\";\n        total_supply = 10000 * (10**18);\n        _balance[msg.sender] = total_supply;\n        contract_owner=msg.sender;\n        \n    }\n\n\n\n\n    function deposit2Contract(uint _amount) public{\n        require(_balance[msg.sender]>=_amount,\"User does not own requested amount of tokens to Deposit\");\n        _balance[msg.sender] -= _amount;\n    }\n\n    function withdrawFromContract(uint _amount) public {\n         _balance[msg.sender] += _amount;\n    }\n\n    function totalSupply() external view override returns (uint256) {\n        return total_supply;\n    }\n\n    function mint(uint256 amount) public  {\n        require(msg.sender == contract_owner, \"Only Owner can mint tokens\");\n        total_supply += amount;\n    }\n\n    function balanceOf(address account) external override view  returns (uint256) {\n        return _balance[account];\n    }\n\n    function transfer(address recipient, uint256 amount)\n        external override \n        returns (bool)\n    {\n\n        require(\n            amount <= _balance[msg.sender],\n            \"Amount inputted is greater than amount sender has\"\n        );\n        _balance[recipient] += amount;\n        _balance[msg.sender] -= amount;\n\n        emit Transfer(msg.sender, recipient, amount);\n    }\n\n    function transferFrom(\n        address sender,\n        address recipient,\n        uint256 amount\n    ) external override  returns (bool) {\n        require(\n            amount <= _allowances[sender][msg.sender],\n            \"Amount inputted is greater than approved amount\"\n        );\n        require(\n            amount <= _balance[sender],\n            \"Inputted Sender does not have the requested amount of tokens\"\n        );\n        _balance[recipient] += amount;\n        _balance[sender] -= amount;\n    }\n\n    function allowance(address _owner, address spender)\n        external\n        view override \n        returns (uint256)\n    {\n        return _allowances[_owner][spender];\n    }\n\n    function approve(address spender, uint256 amount) external override returns (bool) {\n        _allowances[msg.sender][spender] = amount;\n        emit Approval(msg.sender, spender, amount);\n    }\n\n    event Transfer(address indexed from, address indexed to, uint256 value);\n\n    event Approval(\n        address indexed owner,\n        address indexed spender,\n        uint256 value\n    );\n}\n",
  "sourcePath": "contracts/ERC20.sol",
  "abi": [
    {
      "anonymous": false,
      "inputs": [
        {
          "indexed": true,
          "internalType": "address",
          "name": "owner",
          "type": "address"
        },
        {
          "indexed": true,
          "internalType": "address",
          "name": "spender",
          "type": "address"
        },
        {
          "indexed": false,
          "internalType": "uint256",
          "name": "value",
          "type": "uint256"
        }
      ],
      "name": "Approval",
      "type": "event"
    },
    {
      "anonymous": false,
      "inputs": [
        {
          "indexed": true,
          "internalType": "address",
          "name": "from",
          "type": "address"
        },
        {
          "indexed": true,
          "internalType": "address",
          "name": "to",
          "type": "address"
        },
        {
          "indexed": false,
          "internalType": "uint256",
          "name": "value",
          "type": "uint256"
        }
      ],
      "name": "Transfer",
      "type": "event"
    },
    {
      "inputs": [
        {
          "internalType": "address",
          "name": "_owner",
          "type": "address"
        },
        {
          "internalType": "address",
          "name": "spender",
          "type": "address"
        }
      ],
      "name": "allowance",
      "outputs": [
        {
          "internalType": "uint256",
          "name": "",
          "type": "uint256"
        }
      ],
      "stateMutability": "view",
      "type": "function"
    },
    {
      "inputs": [
        {
          "internalType": "address",
          "name": "spender",
          "type": "address"
        },
        {
          "internalType": "uint256",
          "name": "amount",
          "type": "uint256"
        }
      ],
      "name": "approve",
      "outputs": [
        {
          "internalType": "bool",
          "name": "",
          "type": "bool"
        }
      ],
      "stateMutability": "nonpayable",
      "type": "function"
    },
    {
      "inputs": [
        {
          "internalType": "address",
          "name": "account",
          "type": "address"
        }
      ],
      "name": "balanceOf",
      "outputs": [
        {
          "internalType": "uint256",
          "name": "",
          "type": "uint256"
        }
      ],
      "stateMutability": "view",
      "type": "function"
    },
    {
      "inputs": [
        {
          "internalType": "uint256",
          "name": "_amount",
          "type": "uint256"
        }
      ],
      "name": "deposit2Contract",
      "outputs": [],
      "stateMutability": "nonpayable",
      "type": "function"
    },
    {
      "inputs": [],
      "name": "initialize",
      "outputs": [],
      "stateMutability": "nonpayable",
      "type": "function"
    },
    {
      "inputs": [
        {
          "internalType": "uint256",
          "name": "amount",
          "type": "uint256"
        }
      ],
      "name": "mint",
      "outputs": [],
      "stateMutability": "nonpayable",
      "type": "function"
    },
    {
      "inputs": [],
      "name": "totalSupply",
      "outputs": [
        {
          "internalType": "uint256",
          "name": "",
          "type": "uint256"
        }
      ],
      "stateMutability": "view",
      "type": "function"
    },
    {
      "inputs": [
        {
          "internalType": "address",
          "name": "recipient",
          "type": "address"
        },
        {
          "internalType": "uint256",
          "name": "amount",
          "type": "uint256"
        }
      ],
      "name": "transfer",
      "outputs": [
        {
          "internalType": "bool",
          "name": "",
          "type": "bool"
        }
      ],
      "stateMutability": "nonpayable",
      "type": "function"
    },
    {
      "inputs": [
        {
          "internalType": "address",
          "name": "sender",
          "type": "address"
        },
        {
          "internalType": "address",
          "name": "recipient",
          "type": "address"
        },
        {
          "internalType": "uint256",
          "name": "amount",
          "type": "uint256"
        }
      ],
      "name": "transferFrom",
      "outputs": [
        {
          "internalType": "bool",
          "name": "",
          "type": "bool"
        }
      ],
      "stateMutability": "nonpayable",
      "type": "function"
    },
    {
      "inputs": [
        {
          "internalType": "uint256",
          "name": "_amount",
          "type": "uint256"
        }
      ],
      "name": "withdrawFromContract",
      "outputs": [],
      "stateMutability": "nonpayable",
      "type": "function"
    }
  ],
  "bytecode": "0x608060405234801561001057600080fd5b50610ed2806100206000396000f3fe608060405234801561001057600080fd5b506004361061009e5760003560e01c8063a0712d6811610066578063a0712d681461020f578063a9059cbb1461023d578063aeae547d146102a3578063dd62ed3e146102d1578063fbd497dc146103495761009e565b8063095ea7b3146100a357806318160ddd1461010957806323b872dd1461012757806370a08231146101ad5780638129fc1c14610205575b600080fd5b6100ef600480360360408110156100b957600080fd5b81019080803573ffffffffffffffffffffffffffffffffffffffff16906020019092919080359060200190929190505050610377565b604051808215151515815260200191505060405180910390f35b610111610465565b6040518082815260200191505060405180910390f35b6101936004803603606081101561013d57600080fd5b81019080803573ffffffffffffffffffffffffffffffffffffffff169060200190929190803573ffffffffffffffffffffffffffffffffffffffff1690602001909291908035906020019092919050505061046f565b604051808215151515815260200191505060405180910390f35b6101ef600480360360208110156101c357600080fd5b81019080803573ffffffffffffffffffffffffffffffffffffffff16906020019092919050505061067f565b6040518082815260200191505060405180910390f35b61020d6106c8565b005b61023b6004803603602081101561022557600080fd5b81019080803590602001909291905050506108ab565b005b6102896004803603604081101561025357600080fd5b81019080803573ffffffffffffffffffffffffffffffffffffffff16906020019092919080359060200190929190505050610981565b604051808215151515815260200191505060405180910390f35b6102cf600480360360208110156102b957600080fd5b8101908080359060200190929190505050610b20565b005b610333600480360360408110156102e757600080fd5b81019080803573ffffffffffffffffffffffffffffffffffffffff169060200190929190803573ffffffffffffffffffffffffffffffffffffffff169060200190929190505050610b70565b6040518082815260200191505060405180910390f35b6103756004803603602081101561035f57600080fd5b8101908080359060200190929190505050610bf7565b005b600081603660003373ffffffffffffffffffffffffffffffffffffffff1673ffffffffffffffffffffffffffffffffffffffff16815260200190815260200160002060008573ffffffffffffffffffffffffffffffffffffffff1673ffffffffffffffffffffffffffffffffffffffff168152602001908152602001600020819055508273ffffffffffffffffffffffffffffffffffffffff163373ffffffffffffffffffffffffffffffffffffffff167f8c5be1e5ebec7d5bd14f71427d1e84f3dd0314c0f7b2291e5b200ac8c7c3b925846040518082815260200191505060405180910390a392915050565b6000603354905090565b6000603660008573ffffffffffffffffffffffffffffffffffffffff1673ffffffffffffffffffffffffffffffffffffffff16815260200190815260200160002060003373ffffffffffffffffffffffffffffffffffffffff1673ffffffffffffffffffffffffffffffffffffffff16815260200190815260200160002054821115610546576040517f08c379a000000000000000000000000000000000000000000000000000000000815260040180806020018281038252602f815260200180610e0f602f913960400191505060405180910390fd5b603460008573ffffffffffffffffffffffffffffffffffffffff1673ffffffffffffffffffffffffffffffffffffffff168152602001908152602001600020548211156105de576040517f08c379a000000000000000000000000000000000000000000000000000000000815260040180806020018281038252603c815260200180610dd3603c913960400191505060405180910390fd5b81603460008573ffffffffffffffffffffffffffffffffffffffff1673ffffffffffffffffffffffffffffffffffffffff1681526020019081526020016000206000828254019250508190555081603460008673ffffffffffffffffffffffffffffffffffffffff1673ffffffffffffffffffffffffffffffffffffffff168152602001908152602001600020600082825403925050819055509392505050565b6000603460008373ffffffffffffffffffffffffffffffffffffffff1673ffffffffffffffffffffffffffffffffffffffff168152602001908152602001600020549050919050565b600060019054906101000a900460ff16806106e757506106e6610cdf565b5b806106fe57506000809054906101000a900460ff16155b610753576040517f08c379a000000000000000000000000000000000000000000000000000000000815260040180806020018281038252602e815260200180610e6f602e913960400191505060405180910390fd5b60008060019054906101000a900460ff1615905080156107a3576001600060016101000a81548160ff02191690831515021790555060016000806101000a81548160ff0219169083151502179055505b6040518060400160405280600981526020017f44616e5f546f6b656e0000000000000000000000000000000000000000000000815250603790805190602001906107ee929190610cf6565b5069021e19e0c9bab2400000603381905550603354603460003373ffffffffffffffffffffffffffffffffffffffff1673ffffffffffffffffffffffffffffffffffffffff1681526020019081526020016000208190555033603860006101000a81548173ffffffffffffffffffffffffffffffffffffffff021916908373ffffffffffffffffffffffffffffffffffffffff16021790555080156108a85760008060016101000a81548160ff0219169083151502179055505b50565b603860009054906101000a900473ffffffffffffffffffffffffffffffffffffffff1673ffffffffffffffffffffffffffffffffffffffff163373ffffffffffffffffffffffffffffffffffffffff161461096e576040517f08c379a000000000000000000000000000000000000000000000000000000000815260040180806020018281038252601a8152602001807f4f6e6c79204f776e65722063616e206d696e7420746f6b656e7300000000000081525060200191505060405180910390fd5b8060336000828254019250508190555050565b6000603460003373ffffffffffffffffffffffffffffffffffffffff1673ffffffffffffffffffffffffffffffffffffffff16815260200190815260200160002054821115610a1b576040517f08c379a0000000000000000000000000000000000000000000000000000000008152600401808060200182810382526031815260200180610e3e6031913960400191505060405180910390fd5b81603460008573ffffffffffffffffffffffffffffffffffffffff1673ffffffffffffffffffffffffffffffffffffffff1681526020019081526020016000206000828254019250508190555081603460003373ffffffffffffffffffffffffffffffffffffffff1673ffffffffffffffffffffffffffffffffffffffff168152602001908152602001600020600082825403925050819055508273ffffffffffffffffffffffffffffffffffffffff163373ffffffffffffffffffffffffffffffffffffffff167fddf252ad1be2c89b69c2b068fc378daa952ba7f163c4a11628f55a4df523b3ef846040518082815260200191505060405180910390a392915050565b80603460003373ffffffffffffffffffffffffffffffffffffffff1673ffffffffffffffffffffffffffffffffffffffff1681526020019081526020016000206000828254019250508190555050565b6000603660008473ffffffffffffffffffffffffffffffffffffffff1673ffffffffffffffffffffffffffffffffffffffff16815260200190815260200160002060008373ffffffffffffffffffffffffffffffffffffffff1673ffffffffffffffffffffffffffffffffffffffff16815260200190815260200160002054905092915050565b80603460003373ffffffffffffffffffffffffffffffffffffffff1673ffffffffffffffffffffffffffffffffffffffff168152602001908152602001600020541015610c8f576040517f08c379a0000000000000000000000000000000000000000000000000000000008152600401808060200182810382526037815260200180610d9c6037913960400191505060405180910390fd5b80603460003373ffffffffffffffffffffffffffffffffffffffff1673ffffffffffffffffffffffffffffffffffffffff1681526020019081526020016000206000828254039250508190555050565b6000803090506000813b9050600081149250505090565b828054600181600116156101000203166002900490600052602060002090601f016020900481019282601f10610d3757805160ff1916838001178555610d65565b82800160010185558215610d65579182015b82811115610d64578251825591602001919060010190610d49565b5b509050610d729190610d76565b5090565b610d9891905b80821115610d94576000816000905550600101610d7c565b5090565b9056fe5573657220646f6573206e6f74206f776e2072657175657374656420616d6f756e74206f6620746f6b656e7320746f204465706f736974496e7075747465642053656e64657220646f6573206e6f742068617665207468652072657175657374656420616d6f756e74206f6620746f6b656e73416d6f756e7420696e7075747465642069732067726561746572207468616e20617070726f76656420616d6f756e74416d6f756e7420696e7075747465642069732067726561746572207468616e20616d6f756e742073656e64657220686173436f6e747261637420696e7374616e63652068617320616c7265616479206265656e20696e697469616c697a6564a26469706673582212200fb0499a2f15e5661f5520a29cd8004d37296d7acbb470baa916ce8c3fff545264736f6c63430006000033",
  "compiler": {
    "name": "solc",
    "version": "0.6.0+commit.26b70077.Emscripten.clang",
    "optimizer": {
      "enabled": false,
      "runs": 200
    },
    "evmVersion": "petersburg"
  }
}