{
  "fileName": "Temp_ERC20.sol",
  "contractName": "Temp_ERC20",
  "source": "pragma solidity ^0.6.0;\n\nimport \"./ERC20.sol\";\nimport \"./Ownable.sol\";\nimport \"./SafeMath.sol\";\n\n\ncontract Temp_ERC20 is Ownable{\n    using SafeMath for uint256;\n    ERC20 public token;\n\n    mapping (address=>uint) private balance;\n\n    mapping (address=>uint) private timeSet;\n\nfunction initialize0(ERC20 _add) public initializer {\n        token=_add;\n        initialize3();\n\n}\n\n\nfunction deposit_token(uint _token,uint _min) public {\n        token.transferFrom(msg.sender,address(this),_token);\n        balance[msg.sender]=SafeMath.add(balance[msg.sender],_token);\n        timeSet[msg.sender]=SafeMath.add(now,_min*1 minutes); \n}\n\nfunction withdraw_token() public {\n        \n        require(timeSet[msg.sender]<=now,\"There is still some time left before you can withdraw your contract\");\n        require(balance[msg.sender]>0,\"You do not have any tokens Deposited in this contract\");\n        token.transfer(msg.sender,balance[msg.sender]);\n        balance[msg.sender]=0;\n\n}\n\nfunction updateTime(uint _min) onlyOwner public {\n    require(balance[msg.sender]>0,\"You have no tokens in this contract to set timer off\");\n    timeSet[msg.sender]=now +(_min * 1 minutes);\n}\n}",
  "sourcePath": "contracts/Temp_ERC20.sol",
  "abi": [
    {
      "anonymous": false,
      "inputs": [
        {
          "indexed": true,
          "internalType": "address",
          "name": "previousOwner",
          "type": "address"
        },
        {
          "indexed": true,
          "internalType": "address",
          "name": "newOwner",
          "type": "address"
        }
      ],
      "name": "OwnershipTransferred",
      "type": "event"
    },
    {
      "inputs": [
        {
          "internalType": "uint256",
          "name": "_token",
          "type": "uint256"
        },
        {
          "internalType": "uint256",
          "name": "_min",
          "type": "uint256"
        }
      ],
      "name": "deposit_token",
      "outputs": [],
      "stateMutability": "nonpayable",
      "type": "function"
    },
    {
      "inputs": [
        {
          "internalType": "contract ERC20",
          "name": "_add",
          "type": "address"
        }
      ],
      "name": "initialize0",
      "outputs": [],
      "stateMutability": "nonpayable",
      "type": "function"
    },
    {
      "inputs": [],
      "name": "owner",
      "outputs": [
        {
          "internalType": "address",
          "name": "",
          "type": "address"
        }
      ],
      "stateMutability": "view",
      "type": "function"
    },
    {
      "inputs": [],
      "name": "renounceOwnership",
      "outputs": [],
      "stateMutability": "nonpayable",
      "type": "function"
    },
    {
      "inputs": [],
      "name": "token",
      "outputs": [
        {
          "internalType": "contract ERC20",
          "name": "",
          "type": "address"
        }
      ],
      "stateMutability": "view",
      "type": "function"
    },
    {
      "inputs": [
        {
          "internalType": "address",
          "name": "newOwner",
          "type": "address"
        }
      ],
      "name": "transferOwnership",
      "outputs": [],
      "stateMutability": "nonpayable",
      "type": "function"
    },
    {
      "inputs": [
        {
          "internalType": "uint256",
          "name": "_min",
          "type": "uint256"
        }
      ],
      "name": "updateTime",
      "outputs": [],
      "stateMutability": "nonpayable",
      "type": "function"
    },
    {
      "inputs": [],
      "name": "withdraw_token",
      "outputs": [],
      "stateMutability": "nonpayable",
      "type": "function"
    }
  ],
  "bytecode": "0x608060405234801561001057600080fd5b5061111e806100206000396000f3fe608060405234801561001057600080fd5b50600436106100885760003560e01c8063ea98321e1161005b578063ea98321e14610153578063f2fde38b1461015d578063f5fab0e0146101a1578063fc0c546a146101d957610088565b806320ce32551461008d5780636c59bd0c146100d1578063715018a6146100ff5780638da5cb5b14610109575b600080fd5b6100cf600480360360208110156100a357600080fd5b81019080803573ffffffffffffffffffffffffffffffffffffffff169060200190929190505050610223565b005b6100fd600480360360208110156100e757600080fd5b810190808035906020019092919050505061036c565b005b61010761051a565b005b6101116106a5565b604051808273ffffffffffffffffffffffffffffffffffffffff1673ffffffffffffffffffffffffffffffffffffffff16815260200191505060405180910390f35b61015b6106cf565b005b61019f6004803603602081101561017357600080fd5b81019080803573ffffffffffffffffffffffffffffffffffffffff16906020019092919050505061096a565b005b6101d7600480360360408110156101b757600080fd5b810190808035906020019092919080359060200190929190505050610b7a565b005b6101e1610d73565b604051808273ffffffffffffffffffffffffffffffffffffffff1673ffffffffffffffffffffffffffffffffffffffff16815260200191505060405180910390f35b600060019054906101000a900460ff16806102425750610241610d99565b5b8061025957506000809054906101000a900460ff16155b6102ae576040517f08c379a000000000000000000000000000000000000000000000000000000000815260040180806020018281038252602e815260200180611087602e913960400191505060405180910390fd5b60008060019054906101000a900460ff1615905080156102fe576001600060016101000a81548160ff02191690831515021790555060016000806101000a81548160ff0219169083151502179055505b81603460006101000a81548173ffffffffffffffffffffffffffffffffffffffff021916908373ffffffffffffffffffffffffffffffffffffffff160217905550610347610db0565b80156103685760008060016101000a81548160ff0219169083151502179055505b5050565b610374610f58565b73ffffffffffffffffffffffffffffffffffffffff16603360009054906101000a900473ffffffffffffffffffffffffffffffffffffffff1673ffffffffffffffffffffffffffffffffffffffff1614610436576040517f08c379a00000000000000000000000000000000000000000000000000000000081526004018080602001828103825260208152602001807f4f776e61626c653a2063616c6c6572206973206e6f7420746865206f776e657281525060200191505060405180910390fd5b6000603560003373ffffffffffffffffffffffffffffffffffffffff1673ffffffffffffffffffffffffffffffffffffffff16815260200190815260200160002054116104ce576040517f08c379a00000000000000000000000000000000000000000000000000000000081526004018080602001828103825260348152602001806110b56034913960400191505060405180910390fd5b603c81024201603660003373ffffffffffffffffffffffffffffffffffffffff1673ffffffffffffffffffffffffffffffffffffffff1681526020019081526020016000208190555050565b610522610f58565b73ffffffffffffffffffffffffffffffffffffffff16603360009054906101000a900473ffffffffffffffffffffffffffffffffffffffff1673ffffffffffffffffffffffffffffffffffffffff16146105e4576040517f08c379a00000000000000000000000000000000000000000000000000000000081526004018080602001828103825260208152602001807f4f776e61626c653a2063616c6c6572206973206e6f7420746865206f776e657281525060200191505060405180910390fd5b600073ffffffffffffffffffffffffffffffffffffffff16603360009054906101000a900473ffffffffffffffffffffffffffffffffffffffff1673ffffffffffffffffffffffffffffffffffffffff167f8be0079c531659141344cd1fd0a4f28419497f9722a3daafe3b4186f6b6457e060405160405180910390a36000603360006101000a81548173ffffffffffffffffffffffffffffffffffffffff021916908373ffffffffffffffffffffffffffffffffffffffff160217905550565b6000603360009054906101000a900473ffffffffffffffffffffffffffffffffffffffff16905090565b42603660003373ffffffffffffffffffffffffffffffffffffffff1673ffffffffffffffffffffffffffffffffffffffff168152602001908152602001600020541115610767576040517f08c379a000000000000000000000000000000000000000000000000000000000815260040180806020018281038252604381526020018061100f6043913960600191505060405180910390fd5b6000603560003373ffffffffffffffffffffffffffffffffffffffff1673ffffffffffffffffffffffffffffffffffffffff16815260200190815260200160002054116107ff576040517f08c379a00000000000000000000000000000000000000000000000000000000081526004018080602001828103825260358152602001806110526035913960400191505060405180910390fd5b603460009054906101000a900473ffffffffffffffffffffffffffffffffffffffff1673ffffffffffffffffffffffffffffffffffffffff1663a9059cbb33603560003373ffffffffffffffffffffffffffffffffffffffff1673ffffffffffffffffffffffffffffffffffffffff168152602001908152602001600020546040518363ffffffff1660e01b8152600401808373ffffffffffffffffffffffffffffffffffffffff1673ffffffffffffffffffffffffffffffffffffffff16815260200182815260200192505050602060405180830381600087803b1580156108e757600080fd5b505af11580156108fb573d6000803e3d6000fd5b505050506040513d602081101561091157600080fd5b8101908080519060200190929190505050506000603560003373ffffffffffffffffffffffffffffffffffffffff1673ffffffffffffffffffffffffffffffffffffffff16815260200190815260200160002081905550565b610972610f58565b73ffffffffffffffffffffffffffffffffffffffff16603360009054906101000a900473ffffffffffffffffffffffffffffffffffffffff1673ffffffffffffffffffffffffffffffffffffffff1614610a34576040517f08c379a00000000000000000000000000000000000000000000000000000000081526004018080602001828103825260208152602001807f4f776e61626c653a2063616c6c6572206973206e6f7420746865206f776e657281525060200191505060405180910390fd5b600073ffffffffffffffffffffffffffffffffffffffff168173ffffffffffffffffffffffffffffffffffffffff161415610aba576040517f08c379a0000000000000000000000000000000000000000000000000000000008152600401808060200182810382526026815260200180610fe96026913960400191505060405180910390fd5b8073ffffffffffffffffffffffffffffffffffffffff16603360009054906101000a900473ffffffffffffffffffffffffffffffffffffffff1673ffffffffffffffffffffffffffffffffffffffff167f8be0079c531659141344cd1fd0a4f28419497f9722a3daafe3b4186f6b6457e060405160405180910390a380603360006101000a81548173ffffffffffffffffffffffffffffffffffffffff021916908373ffffffffffffffffffffffffffffffffffffffff16021790555050565b603460009054906101000a900473ffffffffffffffffffffffffffffffffffffffff1673ffffffffffffffffffffffffffffffffffffffff166323b872dd3330856040518463ffffffff1660e01b8152600401808473ffffffffffffffffffffffffffffffffffffffff1673ffffffffffffffffffffffffffffffffffffffff1681526020018373ffffffffffffffffffffffffffffffffffffffff1673ffffffffffffffffffffffffffffffffffffffff1681526020018281526020019350505050602060405180830381600087803b158015610c5757600080fd5b505af1158015610c6b573d6000803e3d6000fd5b505050506040513d6020811015610c8157600080fd5b810190808051906020019092919050505050610cdc603560003373ffffffffffffffffffffffffffffffffffffffff1673ffffffffffffffffffffffffffffffffffffffff1681526020019081526020016000205483610f60565b603560003373ffffffffffffffffffffffffffffffffffffffff1673ffffffffffffffffffffffffffffffffffffffff16815260200190815260200160002081905550610d2c42603c8302610f60565b603660003373ffffffffffffffffffffffffffffffffffffffff1673ffffffffffffffffffffffffffffffffffffffff168152602001908152602001600020819055505050565b603460009054906101000a900473ffffffffffffffffffffffffffffffffffffffff1681565b6000803090506000813b9050600081149250505090565b600060019054906101000a900460ff1680610dcf5750610dce610d99565b5b80610de657506000809054906101000a900460ff16155b610e3b576040517f08c379a000000000000000000000000000000000000000000000000000000000815260040180806020018281038252602e815260200180611087602e913960400191505060405180910390fd5b60008060019054906101000a900460ff161590508015610e8b576001600060016101000a81548160ff02191690831515021790555060016000806101000a81548160ff0219169083151502179055505b6000610e95610f58565b90508073ffffffffffffffffffffffffffffffffffffffff16600073ffffffffffffffffffffffffffffffffffffffff167f8be0079c531659141344cd1fd0a4f28419497f9722a3daafe3b4186f6b6457e060405160405180910390a380603360006101000a81548173ffffffffffffffffffffffffffffffffffffffff021916908373ffffffffffffffffffffffffffffffffffffffff160217905550508015610f555760008060016101000a81548160ff0219169083151502179055505b50565b600033905090565b600080828401905083811015610fde576040517f08c379a000000000000000000000000000000000000000000000000000000000815260040180806020018281038252601b8152602001807f536166654d6174683a206164646974696f6e206f766572666c6f77000000000081525060200191505060405180910390fd5b809150509291505056fe4f776e61626c653a206e6577206f776e657220697320746865207a65726f20616464726573735468657265206973207374696c6c20736f6d652074696d65206c656674206265666f726520796f752063616e20776974686472617720796f757220636f6e7472616374596f7520646f206e6f74206861766520616e7920746f6b656e73204465706f736974656420696e207468697320636f6e7472616374436f6e747261637420696e7374616e63652068617320616c7265616479206265656e20696e697469616c697a6564596f752068617665206e6f20746f6b656e7320696e207468697320636f6e747261637420746f207365742074696d6572206f6666a264697066735822122025607e8dfd97f1b11e50a5c31d0a45b5d31096e6d040cde2ea38681998b711af64736f6c63430006000033",
  "compiler": {
    "name": "solc",
    "version": "0.6.0+commit.26b70077.Emscripten.clang",
    "optimizer": {
      "enabled": false,
      "runs": 200
    },
    "evmVersion": "petersburg"
  }
}